:100000007838117378061173780C117378011173B5
:10001000759850758920758840758DE878801173C2
:100020007841118678811173785211867882117324
:1000300078491186788311737853118678847841D2
:1000400011867A00EAF59975F06484788611732434
:1000500030F81186E5F075F00A8478871173243042
:10006000F81186E5F0788811732430F8118611A212
:100070000A80D1D2B3C2B2119B8890119BC2B31136
:100080009BD2B2119B22D2B2D2B3119B8890119B0A
:10009000C2B312009BD2B312009B22790009B99916
:1000A000FC227F007E007D000DBD40FC0EBE40F6B0
:0500B0000FBF40F0222B
:00000001FF
